:020000040800F2
:1000000000040020C1010008616F0108616F010850
:10001000B1D80008616F0108616F0108616F0108C4
:10002000616F0108616F0108616F010891B50108F6
:10003000616F0108616F0108616F0108913A020860
:10004000616F0108E1FB010871FD0108C1FD0108B4
:10005000616F0108616F010821F9010871F9010858
:10006000C1F9010811FA010861FA010871EB0108F0
:10007000C1EB010811EC010861EC0108B1EC0108C9
:1000800001ED010851ED010861F60108F1FF0108D9
:100090006100020811010208C1010208B1FA010859
:1000A000616F0108616F0108E1330208616F0108A7
:1000B0005136020891360208D1360208711702083B
:1000C000B1180208616F0108616F0108616F0108D2
:1000D000616F0108616F0108616F0108513B0208FF
:1000E00041FB010831FC010881FC0108616F010836
:1000F000616F0108616F0108616F0108A1ED0108DE
:10010000616F01084107020811370208616F010899
:10011000616F0108616F0108A1330208616F010876
:10012000F1ED010841EE010891EE0108E1EE010850
:1001300031EF0108616F0108D1FC0108616F01080E
:10014000616F0108616F0108616F0108912B02085E
:1001500081EF0108D1EF010821F00108616F01086A
:10016000616F0108616F0108616F0108616F01082B
:1001700021FD0108616F0108B1350008616F0108B8
:10018000616F0108616F0108616F0108616F01080B
:10019000616F0108616F0108616F0108616F0108FB
:1001A000616F0108616F0108616F0108616F0108EB
:1001B000616F0108616F0108616F0108616F0108DB
:1001C00072B62E4880F3098840F20000CCF200009D
:1001D0004EF63471CEF20001086040F20000C0F229
:1001E000F0004EF68851CEF2000108604FF000009A
:1001F000E1EE100A4EF63C71CEF2000108600620D6
:1002000080F31488BFF36F8F23F0EAFD4FF0553071
:100210001B491C4A91423CBF41F8040BFAE71A49BA
:10022000164A91423CBF41F8040BFAE71749184AB5
:10023000184B9A423EBF51F8040B42F8040BF8E702
:1002400000201549154A91423CBF41F8040BFAE7DA
:1002500016F06EFE124C134DAC4203DA54F8041B38
:100260008847F9E702F034FF0F4C104DAC4203DA37
:1002700054F8041B8847F9E716F06ABE000800200E
:1002800000000020000400200004002038ED0308D6
:10029000000800204C1B0020501B00200C95012062
:1002A000C0010008C0010008C0010008C00100082A
:1002B0002DE9F04F2DED108AC1F80CD0D0F80CD0FC
:1002C000BDEC108ABDE8F08F17F0A2F818F0D0FA54
:1002D000002383F311882846A047002017F0A8FFC9
:1002E00018F0AEFA17F074F817F092FC17F090F8C7
:1002F00018F0BEFA00DFFEE700000000000000007A
:100300002DE9F843544B80461A68544882422DED3B
:10031000028B1BD052490B68DA0405D40A6842F4F8
:1003200080530B60012000E000204E4A4E491160CE
:1003300013684A4A934208D147490B6030B1484894
:10034000036823F48052026000E0FEE798ED018A22
:10035000B5EE408A0021F1EE10FAC8F81C10C8F87A
:100360001810C8F81410C8F81010C8F82810C8F8E9
:100370002410C8F8201029D0DFED3C7A28EE270A97
:1003800010EE100A00F0D8FF044618EE100A0D46D1
:1003900000F0D2FF0646B8F800000F4600F0BAFFA2
:1003A0002BA3D3E9002301F04DF902460B4630465A
:1003B000394600F063FE02460B462046294601F00E
:1003C00041F901F055FAA8F82C0001E0A8F82C102A
:1003D00098ED028AB5EE408AF1EE10FA26D0B8F810
:1003E00000904FEA092000F095FF044618EE100A2D
:1003F0000D4600F0A1FF16A3D3E9002300F0F8FF9B
:10040000064648460F4600F085FF02460B4630463A
:10041000394600F033FE02460B462046294601F0DD
:1004200011F901F025FAA8F82E0002E00020A8F842
:100430002E00B8F800204FF47A73B2FBF3F1A8F85D
:100440003010BDEC028BBDE8F88300BFAFF3008035
:100450001F85EB51B81E1940501B0020CDB5E8B5E3
:100460003038024000300240C2A507F4000080434B
:100470002DE9F04F9BB083461992A94A1891A948DB
:100480001168814200D0FEE79E6AB3F80CC09F69F4
:100490009A8DD98D039603261C6A5D6A059706928C
:1004A00006FB0CF74FEA8C0206264FEA4C000B9134
:1004B0000E97052106FB0CF70F9207220294049574
:1004C0000D90119701FB0CF04FEACC0602FB0CF1EA
:1004D00000271D695C69D3F81CA010901291179633
:1004E0000197188EDDF80490814580F20A818E48CC
:1004F0009BF800601BF80C7010F80690C25DA144D8
:100500008419511994F8008194F8002201EB4808ED
:10051000CDF81C80DDF834801BF80860855DC719B4
:10052000A9180E9A97F800411BF8022097F800725C
:1005300001EB4405815C0895CC1981190F9E91F857
:10054000008191F8007204EB48081BF80640CDF8D2
:1005500024808218055D92F8006192F80022E91962
:1005600001EB460505EB0807DDF8408015971BF801
:1005700008700A950419C15D94F8005194F800427E
:10058000DDF81C808E1806EB4501119D089A1BF8BA
:1005900005508E18C719425D1696161997F8002156
:1005A00006EB42029044CDF85080129C97F80072FE
:1005B0001BF804604519845DE41995F8007195F8FD
:1005C0000052801904EB47044FF01C0804EB0907A4
:1005D00090F80061139708FB09AADDF81C800C94C1
:1005E0000AEB0209152705EB460490F8005207FBB9
:1005F0000890099FDDF820900A2606FB070A0F27BE
:1006000007FB09A04FF00308DDF8289008FB010064
:100610004FF0060A0AFB0900009015984FF03009C8
:1006200009FB00FADDF858902E2000FB09A0824655
:100630000598824413984FF0240909FB00AA1498E6
:100640004FF02A0909FB00AA0898DDF8249008FB5E
:1006500000F8062000FB0988DDF81C9008EB090073
:1006600007FB01010A9F0C98DDF8009006FB0718B4
:100670001C2606FB008115270B9807FB021205922A
:10068000A9F5003868B1029E049FCDF8108006EBF2
:100690000801CE1B46434FF4807296FBF2F00290A5
:1006A0008046069961B1039E08FB01F8C1F5807789
:1006B00006FB07894FF4807299FBF2F003908046A5
:1006C000199901FB08F7002F02DD0837381103E004
:1006D000083F102697FBF6F047F6BC72019E1349BF
:1006E000189FDDF85C809042A8BF1046DA897243FB
:1006F0008842A8BF0146013627F81210C34401966C
:10070000EFE61D615C61029D059C1D629C61039D7D
:10071000049CC3F81CA05C629D621BB0BDE8F08F16
:10072000501B0020CDB5E8B5000800204480FFFF35
:100730002DE9F04FA1B0C74C1F92C74A1E91116816
:10074000A14200D0FEE79F6A9A69998DDC8D0497DB
:100750009F89069207910F940322052106241D6AA2
:100760005E6A03957A4379437C43129214911594FF
:10077000072209210A24794305964FEA47084FEAE0
:1007800087097A434FEAC70A7C431E695D69D3F83B
:100790001CB01891CDF84480CDF84C901692CDF84D
:1007A0005CA01D94002102911A8E0299914280F260
:1007B0005981AA4A047812F80490A944C55D111918
:1007C00012F8058091F8004191F800A2464406EB2A
:1007D0004406119C0896045D5519165D95F800C1F4
:1007E00095F8005206EB0A0808EB4C0ADDF8488041
:1007F000CDF824A010F80810DDF84C80565C1419D0
:1008000006EB050A10F8085094F800C1565D94F8FC
:10081000004251180AEB4C0C361991F800A1149CB7
:1008200091F80012CDF828C006EB4A08065DCDF815
:100830002C80945DDDF85480551904EB010A95F87D
:10084000004195F800520AEB44010C9110F8081091
:100850009619545C641996F8005104EB45040D9404
:10086000169D96F80062DDF824A0DDF85C80A444B3
:10087000445DCDF86CC0155D5118AD1991F800615B
:1008800091F8001205EB460505EB0A060E9510F8E7
:1008900008501C961419565DDDF860A0711894F884
:1008A000006194F8004201EB460C08990CEB01063C
:1008B0001A9610F80A605519915D9219091995F860
:1008C000004192F8006195F8005201EB44012D249B
:1008D00001EB090804FB09BB10910899CDF864806D
:1008E0000BEB0C09DDF8288005EB460592F8006259
:1008F000242202FB019A152404FB08A9DDF824A098
:100900000C994FF01C0B0BFB0A994FF00A08DDF80D
:100910002CA008FB01994FF00F0B0E990BFB0A99C5
:100920004FF00308DDF834A008FB01994FF0060BE7
:100930000BFB0A99CDF80490DDF82CA00C994FF030
:100940004B0B51440BFB01F91B994FF0490A0AFB71
:10095000019B0699DDF868900BEB010A4FF03F0B05
:100960001C990BFB09AA4FF0450BDDF864900BFBBB
:1009700001AA4FF0370B0BFB09ABDDF824A00A9955
:1009800008FB0AF84FF00609DDF820A009FB0188F2
:100990000C99D0444FF00F09DDF82CA009FB018819
:1009A0000A21DDF8389001FB0A884FF01C0A0D99E6
:1009B0000AFB098804FB018A109C0F994FF02D094E
:1009C00009FB04A8DDF804A002FB0C820692AAF53C
:1009D0007A3971B1039C0599CDF8149004EB0902A2
:1009E000541A0F9A4FF48071544394FBF1F403941A
:1009F000A146079961B1049CC1F5807209FB01FC15
:100A000004FB02C94FF4807199FBF1F20492914604
:100A10001F9C04FB09F1002902DD10314C1103E099
:100A20001039202291FBF2F447F6BC718C42A8BF2A
:100A30000C46DA890299DDF874804A4308498C42F1
:100A4000A8BF21461E9C24F81210029A4044511C53
:100A5000A9E600BFCDB5E8B5501B00200008002076
:100A60004480FFFF05981E615D61039E069D049C06
:100A700058629D61C3F81CB01E629C62104621B092
:100A8000BDE8F08F2DE9F04F95B0994C1392994A3B
:100A900012911168A14200D0FEE75E6A1D6A9F6A4A
:100AA0009A69998DB3F82E800C964FF00009D3F80F
:100AB00010C05E69D3F81CB00195029709920A91A3
:100AC000CDF83480CDF80C908B4904780D190C5D6D
:100AD00095F8007295F8008106EB070A067ACDF8C2
:100AE0002CA08F198E5D97F8002202EB4805AC44CC
:100AF000057C97F80081CDF810C04A194D5D92F839
:100B0000009292F8002109EB040A0AEB480C90F8D5
:100B100018A090F82090CDF814C001EB0A0494F8C6
:100B2000007294F80041BF1907EB420801EB09027B
:100B3000CDF8188092F8006292F80021771907EB3F
:100B4000440606EB080C90F8288011F80A70079606
:100B500001EB0805CDF840C095F8004295F800512A
:100B6000E619059F06EB4204E619119690F83060ED
:100B700008948C1911F8097094F80022D219049F76
:100B800002EB4502BD180F9590F8385011F8089007
:100B900094F80041DDF82C808E5D4F1997F800A283
:100BA00097F800710AEB090C0CEB4404DDF818A06F
:100BB00011F805C000941C2505FB082944440A21AE
:100BC000DDF8148001FB0A9906EB4706DDF820A04A
:100BD0000F2707FB0899032101FB0A99DDF81CA0E8
:100BE0004FF0060808FB0A99DDF810A0152101FB5B
:100BF0000A99CB44DDF84490CDF82CB04FF02E0A82
:100C00000AFB09FADDF840904FF0300B0BFB09AA04
:100C10004FF0240B0BFB04A90F9C4FF02A0A0AFB90
:100C2000049B099CDDF81890DDF810A0A344059CF6
:100C300008FB09A8DDF820A04FF0030909FB048890
:100C4000079C07FB0A890A2707FB0498DDF8009038
:100C5000DDF82CA00C9F05FB098501FB02520199D0
:100C60000992AAF500328C180D99DDF82880E51B51
:100C70004D434FF4807195FBF1F40194019F44467C
:100C80007C43029FC8EB010507FB054595FBF1F18D
:100C90000291139C6143002902DD0831091103E030
:100CA0000839102791FBF7F147F6BC75134C129FDA
:100CB0000C92A942A8BF2946039DA142B8BF214674
:100CC00079530C354030C02D03957FF4FDAE099863
:100CD000019C029D9861C3F810C05E61C3F81CB00E
:100CE0001C625A629D62102015B0BDE8F08F00BFF3
:100CF000CDB5E8B5501B0020000800204480FFFF60
:100D00002DE9F04FA1B084461F92BE4A1E91BE4805
:100D10001168814200D0FEE79E6A9F6905969E8910
:100D2000D98D01967000079703277E431190019893
:100D30009A8D0F9112960521019E08924843B200A8
:100D40001490019E01980199139206277E43072271
:100D5000C700514315961797019E019F1C6A5D6A53
:100D6000169109220A2156434F434FF0000804947C
:100D700006955C691D69D3F81CB018961D97CDF8CF
:100D80000C80188EDDF80C90814580F25A819F49C5
:100D90009CF80000DDF804900F181CF8096097F823
:100DA00000A297F80021085CA2448C198E5D94F88B
:100DB000008294F80041454405EB4207119D0997D4
:100DC0001CF805504A194D5D92F8007292F80081A6
:100DD0003F18129807EB44091CF80040CDF8289002
:100DE00008190C5D90F8007290F80001BF1907EB2C
:100DF0004809DDF84C80CDF82C901CF8089001EBE8
:100E00000902CDF8089092F8006292F80021771953
:100E1000149E1CF80690159E07EB400801EB090094
:100E2000CDF8308090F8005290F800012F1907EBB0
:100E300042081CF80670029DCDF83480CA194E5D38
:100E400092F80042A41904EB40050295DDF82C80CD
:100E5000169E92F80021CF5DA844CDF86C801CF856
:100E6000068011F80950DDF8609001EB080011F8D8
:100E7000088090F8004290F8000166190A9D06EB80
:100E80004204179A0E9466191C961CF802608C197D
:100E90008E5D94F8002294F80041D519099F05EB66
:100EA0004002D5191A951CF809504F194D5D97F855
:100EB000000297F80071404400EB44002D2100EB44
:100EC0000A0401FB0ABB1090099819940BEB020A63
:100ED00006EB470424210B9F01FB00A94FF01508E6
:100EE000DDF828A00D9808FB07964FF01C0B0BFBB4
:100EF0000A69DDF830800A2606FB009A0F27DDF824
:100F0000389007FB08AB4FF0030808FB09BADDF87F
:100F100008B0062000FB0BA9CDF80090DDF834A046
:100F2000DDF830B04FF04B090AEB0B0009FB00FA7B
:100F30001B984FF0490B0BFB00A9079809EB000A1F
:100F4000DDF868901C984FF03F0B0BFB09AA4FF09F
:100F5000450BDDF864900BFB00AA4FF0370B0BFB41
:100F600009ABDDF828A00B9808FB0AF84FF006093A
:100F7000DDF824A009FB00880D9808EB0A0907FB9F
:100F800000980C9FDDF83890029806FB07864FF01A
:100F90001C0A0AFB0968152707FB008610980F9F9B
:100FA0004FF02D0909FB006A01FB02A2DDF800A049
:100FB0000792AAF57A386FB10499069ECDF8188089
:100FC00001EB0800811B79434FF4807291FBF2F72B
:100FD0000497B846089860B1059908FB00F8C0F579
:100FE000807601FB06894FF4807299FBF2F7059732
:100FF000B8461F9800FB08F6002E09DD1036771161
:101000000AE000BF501B0020CDB5E8B50008002065
:10101000103E202196FBF1F7039ED8891049DDF898
:10102000748047F6BC729742A8BF17468F42A8BF8C
:10103000394670431E9F721C27F81010C444039257
:101040009FE65C61079C049A9C61059E069C1D615D
:10105000C3F81CB01A625C629E6221B0BDE8F08FDA
:101060004480FFFFAFF3008000000000000000009C
:1010700081F0004102E000BF83F0004330B54FEA49
:1010800041044FEA430594EA050F08BF90EA020FB6
:101090001FBF54EA000C55EA020C7FEA645C7FEA49
:1010A000655C00F0E2804FEA5454D4EB5555B8BF6C
:1010B0006D420CDD2C4480EA020281EA030382EADD
:1010C000000083EA010180EA020281EA0303362D6F
:1010D00088BF30BD11F0004F4FEA01314FF4801C42
:1010E0004CEA113102D0404261EB410113F0004F54
:1010F0004FEA03334CEA133302D0524263EB43030B
:1011000094EA050F00F0A780A4F10104D5F1200EA8
:101110000DDB02FA0EFC22FA05F2801841F1000103
:1011200003FA0EF2801843FA05F359410EE0A5F1D7
:1011300020050EF1200E012A03FA0EFC28BF4CF008
:10114000020C43FA05F3C01851EBE37101F00045BE
:1011500007D54FF0000EDCF1000C7EEB00006EEBCB
:101160000101B1F5801F1BD3B1F5001F0CD3490855
:101170005FEA30004FEA3C0C04F101044FEA4452AC
:1011800012F5800F80F09A80BCF1004F08BF5FEA33
:10119000500C50F1000041EB045141EA050130BD13
:1011A0005FEA4C0C404141EB010111F4801FA4F1B6
:1011B0000104E9D191F0000F04BF01460020B1FA0B
:1011C00081F308BF2033A3F10B03B3F120020CDA43
:1011D0000C3208DD02F1140CC2F10C0201FA0CF021
:1011E00021FA02F10CE002F11402D8BFC2F1200C86
:1011F00001FA02F120FA0CFCDCBF41EA0C0190403C
:10120000E41AA2BF01EB0451294330BD6FEA040484
:101210001F3C1CDA0C340EDC04F11404C4F120026F
:1012200020FA04F001FA02F340EA030021FA04F381
:1012300045EA030130BDC4F10C04C4F1200220FAD8
:1012400002F001FA04F340EA0300294630BD21FA16
:1012500004F0294630BD94F0000F83F4801306BFDC
:1012600081F480110134013D4EE77FEA645C18BFD0
:101270007FEA655C29D094EA050F08BF90EA020F67
:1012800005D054EA000C04BF1946104630BD91EA5F
:10129000030F1EBF0021002030BD5FEA545C05D162
:1012A0004000494128BF41F0004130BD14F58004A1
:1012B0003CBF01F5801130BD01F0004545F0FE4115
:1012C00041F470014FF0000030BD7FEA645C1ABF4A
:1012D000194610467FEA655C1CBF0B46024650EA81
:1012E000013406BF52EA033591EA030F41F40021AD
:1012F00030BD00BF90F0000F04BF0021704730B533
:101300004FF4806404F132044FF000054FF0000107
:1013100050E700BF90F0000F04BF0021704730B5C8
:101320004FF4806404F1320410F0004548BF40429D
:101330004FF000013EE700BF42004FEAE2014FEAF2
:1013400031014FEA02701FBF12F07F4393F07F4FCD
:1013500081F06051704732F07F4208BF704793F0D0
:101360007F4F04BF41F40021704730B54FF46074E3
:1013700001F0004521F000411CE700BF50EA0102E6
:1013800008BF704730B54FF000050AE050EA01028F
:1013900008BF704730B511F0004502D5404261EBFF
:1013A00041014FF4806404F132045FEA915C3FF440
:1013B000D8AE4FF003025FEADC0C18BF03325FEADD
:1013C000DC0C18BF033202EBDC02C2F1200300FA8E
:1013D00003FC20FA02F001FA03FE40EA0E0021FAB3
:1013E00002F11444BDE600BF000000000000000050
:1013F00070B54FF0FF0C4CF4E06C1CEA11541DBFAB
:101400001CEA135594EA0C0F95EA0C0F00F0DEF875
:101410002C4481EA030621EA4C5123EA4C5350EA5A
:10142000013518BF52EA033541F4801143F48013AB
:1014300038D0A0FB02CE4FF00005E1FB02E506F03C
:101440000042E0FB03E54FF00006E1FB03569CF091
:10145000000F18BF4EF0010EA4F1FF04B6F5007F97
:1014600064F5407404D25FEA4E0E6D4146EB060609
:1014700042EAC62141EA55514FEAC52040EA5E5092
:101480004FEACE2EB4F1FD0C88BFBCF5E06F1ED83C
:10149000BEF1004F08BF5FEA500E50F1000041EB73
:1014A000045170BD06F0004646EA010140EA020020
:1014B00081EA0301B4EB5C04C2BFD4EB0C0541EA42
:1014C000045170BD41F480114FF0000E013C00F357
:1014D000AB8014F1360FDEBF002001F0004170BD7B
:1014E000C4F10004203C35DA0C341BDC04F1140494
:1014F000C4F1200500FA05F320FA04F001FA05F220
:1015000040EA020001F0004221F0004110EBD370EC
:1015100021FA04F642EB06015EEA430E08BF20EA18
:10152000D37070BDC4F10C04C4F1200500FA04F3BB
:1015300020FA05F001FA04F240EA020001F000414D
:1015400010EBD37041F100015EEA430E08BF20EAC0
:10155000D37070BDC4F1200500FA05F24EEA020E08
:1015600020FA04F301FA05F243EA020321FA04F037
:1015700001F0004121FA04F220EA020000EBD370EE
:101580005EEA430E08BF20EAD37070BD94F0000FEE
:101590000FD101F00046400041EB010111F4801F22
:1015A00008BF013CF7D041EA060195F0000F18BFD3
:1015B000704703F00046520043EB030313F4801F0F
:1015C00008BF013DF7D043EA0603704794EA0C0FC9
:1015D0000CEA135518BF95EA0C0F0CD050EA4106DF
:1015E00018BF52EA4306D1D181EA030101F000415C
:1015F0004FF0000070BD50EA410606BF1046194684
:1016000052EA430619D094EA0C0F02D150EA01368F
:1016100013D195EA0C0F05D152EA03361CBF1046D0
:1016200019460AD181EA030101F0004141F0FE416F
:1016300041F470014FF0000070BD41F0FE4141F4F3
:10164000780170BD70B54FF0FF0C4CF4E06C1CEAF3
:1016500011541DBF1CEA135594EA0C0F95EA0C0FA8
:1016600000F0A7F8A4EB050481EA030E52EA033563
:101670004FEA013100F088804FEA03334FF0805584
:1016800045EA131343EA12634FEA022245EA1115B1
:1016900045EA10654FEA00260EF000419D4208BF62
:1016A000964244F1FD0404F5407402D25B084FEA0F
:1016B0003202B61A65EB03055B084FEA32024FF4BB
:1016C00080104FF4002CB6EB020E75EB030E22BF18
:1016D000B61A754640EA0C005B084FEA3202B6EBD8
:1016E000020E75EB030E22BFB61A754640EA5C0087
:1016F0005B084FEA3202B6EB020E75EB030E22BF17
:10170000B61A754640EA9C005B084FEA3202B6EB17
:10171000020E75EB030E22BFB61A754640EADC00D6
:1017200055EA060E18D04FEA051545EA16754FEA38
:1017300006164FEAC30343EA52734FEAC2025FEA56
:101740001C1CC0D111F4801F0BD141EA00014FF0E5
:1017500000004FF0004CB6E711F4801F04BF0143B6
:101760000020B4F1FD0C88BFBCF5E06F3FF6AFAED2
:10177000B5EB030C04BFB6EB020C5FEA500C50F162
:10178000000041EB045170BD0EF0004E4EEA1131E5
:1017900014EB5C04C2BFD4EB0C0541EA045170BDEC
:1017A00041F480114FF0000E013C90E645EA060E30
:1017B0008DE60CEA135594EA0C0F08BF95EA0C0F5E
:1017C0003FF43BAF94EA0C0F0AD150EA01347FF4A6
:1017D00034AF95EA0C0F7FF425AF104619462CE77D
:1017E00095EA0C0F06D152EA03353FF4FDAE1046E0
:1017F000194622E750EA410618BF52EA43067FF431
:10180000C5AE50EA41047FF40DAF52EA43057FF4C0
:10181000EBAE12E700000000000000000000000036
:101820004FEA410212F5001215D211D56FF4787308
:10183000B3EB625212D94FEAC12343F0004343EAAB
:10184000505311F0004F23FA02F018BF4042704786
:101850004FF00000704750EA013005D111F0004010
:1018600008BF6FF0004070474FF00000704700BFA6
:101870004A0011D212F5001211D20DD56FF478730F
:10188000B3EB62520ED44FEAC12343F0004343EA64
:10189000505323FA02F070474FF00000704750EAAF
:1018A000013002D14FF0FF3070474FF00000704719
:1018B0004FEA4102B2F1E04324BFB3F5001CDCF172
:1018C000FE5C0DD901F0004C4FEAC0024CEA5070AA
:1018D000B2F1004F40EB830008BF20F001007047D9
:1018E00011F0804F21D113F13872BCBF01F00040DC
:1018F000704741F480114FEA5252C2F11802C2F10E
:10190000200C10FA0CF320FA02F018BF40F001008E
:101910004FEAC1234FEAD32303FA0CFC40EA0C0040
:1019200023FA02F34FEA4303CCE77FEA625307D17D
:1019300050EA01331EBF4FF0FE4040F440007047B4
:1019400001F0004040F0FE4040F40000704700BF4E
:1019500080F0004002E000BF81F0004142001FBF64
:101960005FEA410392EA030F7FEA226C7FEA236C6D
:101970006AD04FEA1262D2EB1363C1BFD218414062
:1019800048404140B8BF5B42192B88BF704710F0F8
:10199000004F40F4000020F07F4018BF404211F09B
:1019A000004F41F4000121F07F4118BF494292EA03
:1019B000030F3FD0A2F1010241FA03FC10EB0C002F
:1019C000C3F1200301FA03F100F0004302D54942BC
:1019D00060EB4000B0F5000F13D3B0F1807F06D369
:1019E00040084FEA310102F10102FE2A51D2B1F161
:1019F000004F40EBC25008BF20F0010040EA030056
:101A00007047490040EB000010F4000FA2F1010202
:101A1000EDD1B0FA80FCACF1080CB2EB0C0200FA8C
:101A20000CF0AABF00EBC25052421843BCBFD040DA
:101A30001843704792F0000F81F4000106BF80F454
:101A400000000132013BB5E74FEA41037FEA226C17
:101A500018BF7FEA236C21D092EA030F04D092F0E2
:101A6000000F08BF0846704790EA010F1CBF002016
:101A7000704712F07F4F04D1400028BF40F0004073
:101A8000704712F100723CBF00F50000704700F093
:101A9000004343F0FE4040F4000070477FEA2262BA
:101AA00016BF08467FEA23630146420206BF5FEA8B
:101AB000412390EA010F40F4800070474FF000038B
:101AC00004E000BF10F0004348BF40425FEA000C52
:101AD00008BF704743F0964301464FF000001CE0FA
:101AE00050EA010208BF70474FF000030AE000BF50
:101AF00050EA010208BF704711F0004302D540428E
:101B000061EB41015FEA010C02BF844601460020FF
:101B100043F0B64308BFA3F18053A3F50003BCFA1A
:101B20008CF2083AA3EBC25310DB01FA02FC6344C7
:101B300000FA02FCC2F12002BCF1004F20FA02F2CE
:101B400043EB020008BF20F00100704702F12002C1
:101B500001FA02FCC2F1200250EA4C0021FA02F222
:101B600043EB020008BF20EADC7070470000000071
:101B700053B94AB9002908BF00281CBF4FF0FF31F4
:101B80004FF0FF3000F074B9ADF1080C6DE904CEF0
:101B900000F006F8DDF804E0DDE9022304B0704748
:101BA0002DE9F047089E04468846002B4BD18A4217
:101BB000154667D9B2FA82F24AB1C2F1200701FA9A
:101BC00002F320FA07F7954047EA030894404FEAEA
:101BD000154E230CB8FBFEF71FFA85FC0EFB178889
:101BE00043EA084307FB0CF1994209D9EB1807F1C6
:101BF000FF3080F01B81994240F21881023F2B4454
:101C00005B1AA4B2B3FBFEF00EFB103344EA0344AC
:101C100000FB0CFCA44509D92C1900F1FF3380F01E
:101C20000781A44540F2048102382C4440EA074071
:101C3000A4EB0C0400271EB1D4400023C6E90043E6
:101C40003946BDE8F0878B4209D9002E00F0EB80C1
:101C50000027C6E9000138463946BDE8F087B3FAE7
:101C600083F7002F47D18B4202D3824200F2FA80E1
:101C7000841A61EB030301209846002EE0D0C6E9E8
:101C80000048DDE702B9FFDEB2FA82F2002A40F036
:101C90008F80491B4FEA154E1FFA85F80127B1FBCB
:101CA000FEFC230C0EFB1C1143EA014308FB0CF164
:101CB000994207D9EB180CF1FF3002D2994200F299
:101CC000CD808446591AA3B2B1FBFEF00EFB10146E
:101CD00043EA044408FB00F8A04507D92C1900F199
:101CE000FF3302D2A04500F2B6801846A4EB0804E8
:101CF00040EA0C409FE7C7F1200CBB4022FA0CFEE3
:101D00004EEA030E01FA07F420FA0CF521FA0CF35F
:101D10004FEA1E482543B3FBF8F92C0C08FB193396
:101D20001FFA8EFA44EA034309FB0AF49C4202FAC2
:101D300007F200FA07F10BD91EEB030309F1FF309C
:101D400080F087809C4240F28480A9F102097344AC
:101D50001B1BADB2B3FBF8F008FB103345EA03449C
:101D600000FB0AFAA24508D91EEB040400F1FF3378
:101D70006BD2A24569D90238744440EA0940A0FBFD
:101D80000289A4EB0A044C45C2464B4654D351D0B9
:101D9000002E69D0B1EB0A0564EB030404FA0CFCD5
:101DA000FD40FC404CEA0505C6E90054002747E722
:101DB000C2F1200320FA03F7954001FA02F021FA5C
:101DC00003F34FEA154E3843010CB3FBFEF71FFA3D
:101DD00085F80EFB173341EA034107FB08F38B42FA
:101DE00004FA02F407D9691807F1FF3C2FD28B429D
:101DF0002DD9023F2944CB1A81B2B3FBFEF00EFB72
:101E0000103341EA034100FB08F38B4207D96918FC
:101E100000F1FF3C17D28B4215D902382944C91A68
:101E200040EA07473BE73746304609E70746E7E61B
:101E30001846FBE64145ABD2B8EB020A69EB0E024D
:101E400001381346A4E76046E9E7184695E7674678
:101E5000D1E781467CE702382C4447E7ACF1020C1D
:101E60002B442FE7384608E73746E9E60000000034
:101E7000704700BF000000000000000000000000EC
:101E8000844641EA000313F003036DD1403A41D385
:101E900051F8043B40F8043B51F8043B40F8043B44
:101EA00051F8043B40F8043B51F8043B40F8043B34
:101EB00051F8043B40F8043B51F8043B40F8043B24
:101EC00051F8043B40F8043B51F8043B40F8043B14
:101ED00051F8043B40F8043B51F8043B40F8043B04
:101EE00051F8043B40F8043B51F8043B40F8043BF4
:101EF00051F8043B40F8043B51F8043B40F8043BE4
:101F000051F8043B40F8043B51F8043B40F8043BD3
:101F1000403ABDD2303211D351F8043B40F8043B73
:101F200051F8043B40F8043B51F8043B40F8043BB3
:101F300051F8043B40F8043B103AEDD20C3205D383
:101F400051F8043B40F8043B043AF9D2043208D07B
:101F5000D2071CBF11F8013B00F8013B01D30B88ED
:101F600003806046704700BF082A13D38B078DD0CB
:101F700010F003038AD0C3F10403D21ADB071CBF9D
:101F800011F8013B00F8013B80D331F8023B20F807
:101F9000023B7BE7043AD9D3013A11F8013B00F840
:101FA000013BF9D20B7803704B7843708B788370C8
:101FB00060467047000000000000000000000000C4
:101FC000A2EB0300704700BF02780B78012A28BFFC
:101FD0009A42F5D16DE9044540EA0104CDE9026772
:101FE0006FF0000C4FEA447212B380EA010414F05F
:101FF000070F6AD100F0070420F0070004F0030582
:1020000021F007014FEAC505F0E8042314F0040F9E
:10201000F1E804670CFA05F462EA040266EA0406D1
:102020000AD063EA0403624667EA0407664603E0EF
:10203000F0E80423F1E8046782FA4CF582EA06042A
:10204000A4FA8CF46CBB83FA4CF583EA0705A5FA75
:102050008CF595B950E9022351E9026782FA4CF5F3
:1020600082EA0604A4FA8CF483FA4CF583EA0705A5
:10207000A5FA8CF52543DBD09CB92DBAB5FA85F4C9
:1020800024F0070427FA04F1DDE9026723FA04F3D8
:1020900003F0FF0001F0FF01FDE80445A0EB0100A3
:1020A000704724BAB4FA84F424F0070426FA04F141
:1020B000DDE9026722FA04F202F0FF0001F0FF01FD
:1020C000FDE80445A0EB0100704714F0030F3CD17C
:1020D00010F0030428D150F8082B51F8083B82FA7D
:1020E0004CF582EA0305A5FA8CF55DB950F8042C8D
:1020F00051F8043C82FA4CF582EA0305A5FA8CF506
:10210000002DE8D02DBAB5FA85F424F0070423FA9F
:1021100004F122FA04F202F0FF0001F0FF01FDE8F1
:102120000445A0EB010070474FEAC40420F003000F
:1021300050F8082B21F0030151F8083B0CFA04F485
:1021400062EA040263EA0403C9E710F003041AD048
:10215000A1EB040120F00300E40750F8042B06D0A3
:102160000FD28B785FFAA2F4E41A06D12BB1CB78A8
:102170005FFAB2F4E41A00D11BB920465DF8104BA7
:10218000704701F1040150F8042BCC0721F0030142
:1021900051F8043B48D824D222F07F4482FA4CF50F
:1021A00094EA1325A5FA8CF50AD165B951F8043BD8
:1021B00084EA0204B4EB036F0ED150F8042BEBE772
:1021C0004FEA132355E035F07F454DD10878FDE8FF
:1021D0000445C0F1000070474FEA126203F0FF03AC
:1021E00047E002EA1C4482FA4CF594EA1345A5FA4A
:1021F0008CF50AD165B951F8043B84EA0204B4EBCA
:10220000034F0CD150F8042BEBE74FEA134330E0B7
:1022100015EA1C4528D10B884FEA124229E04FEA03
:10222000124203EA1C4324E002F0FF0482FA4CF558
:1022300094EA1365A5FA8CF50AD165B951F8043B07
:1022400084EA0204B4EB032F09D150F8042BEBE726
:102250004FEA13630DE015F0FF0F05D10B684FEA4D
:10226000122223F07F4304E04FF00000FDE8044514
:10227000704712BA1BBA82FA4CF482EA0304A4FA39
:102280008CF5B5FA85F402FA04F203FA04F34FEA86
:102290001260FDE80445A0EB1360704700000000E9
:1022A00090F800F06DE9024520F007016FF0000C96
:1022B00010F0070491F820F040F049804FF000043E
:1022C0006FF00700D1E9002391F840F000F1080019
:1022D00082FA4CF2A4FA8CF283FA4CF3A2FA8CF351
:1022E0004BBBD1E9022382FA4CF200F10800A4FAB8
:1022F0008CF283FA4CF3A2FA8CF3E3B9D1E904230C
:1023000082FA4CF200F10800A4FA8CF283FA4CF342
:10231000A2FA8CF37BB9D1E9062301F1200182FAFC
:102320004CF200F10800A4FA8CF283FA4CF3A2FA02
:102330008CF3002BC6D0002A04BF04301A4612BA10
:10234000B2FA82F2FDE8024500EBD2007047D1E913
:10235000002304F00305C4F100004FEAC50514F0A2
:10236000040F91F840F00CFA05F562EA05021CBF73
:1023700063EA050362464FF00004A9E7000000008D
:1023800001F0FF01102A2BDB10F0070F08D010F826
:10239000013B013A8B422DD010F0070F42B3F6D12A
:1023A000F0B441EA012141EA014122F007047FF043
:1023B00000070023F0E80256083C85EA010586EA9A
:1023C000010685FA47F5A3FA87F586FA47F6A5FAD6
:1023D00087F68EB9EED1F0BC01F0FF0102F00702E2
:1023E00032B110F8013B013A83EA010313B1F8D18D
:1023F0000020704701387047002D06BF354603386E
:10240000073815F0010F07D1013015F4807F02BFA6
:10241000013015F4C03F0130F0BC0138704700BFF7
:102420004FF0FF3C06E000BF4FF0010C02E000BFA0
:102430004FF0010C4DF804CD4FEA410C7FEA6C5C83
:102440004FEA430C18BF7FEA6C5C1BD001B050EA26
:10245000410C0CBF52EA430C91EA030F02BF90EA11
:10246000020F0020704710F1000F91EA030F58BFD0
:10247000994208BF90422CBFD8176FEAE37040F032
:10248000010070474FEA410C7FEA6C5C02D150EAD0
:10249000013C07D14FEA430C7FEA6C5CD6D152EA8B
:1024A000033CD3D05DF8040B704700BF8446104650
:1024B00062468C461946634600E000BF01B5FFF74F
:1024C000B7FF002848BF10F1000F01BD4DF808ED1F
:1024D000FFF7F4FF0CBF012000205DF808FB00BFF0
:1024E0004DF808EDFFF7EAFF34BF012000205DF84A
:1024F00008FB00BF4DF808EDFFF7E0FF94BF012097
:1025000000205DF808FB00BF4DF808EDFFF7CEFF97
:1025100094BF012000205DF808FB00BF4DF808EDD6
:10252000FFF7C4FF34BF012000205DF808FB00BFA7
:102530004FEA410C7FEA6C5C02D150EA013C0AD1BF
:102540004FEA430C7FEA6C5C02D152EA033C02D1B1
:102550004FF0000070474FF001007047000000008E
:102560000EB410B583B005AA094C52F8041B2368B9
:102570000092019327F084FB019A23689A4204D1C8
:1025800003B0BDE8104003B0704700F021FE00BF6B
:10259000000B002000000000000000000000000010
:1025A0002DE9F04F6B4C6C4AA3696C499A616C4BF6
:1025B0006C481B68C7B00025459312F081FE6A493C
:1025C0000890684812F07CFEAB460A908DF83F50A8
:1025D000ADF810510C952E460CF062F82F46099577
:1025E0000CF02EF90B950795202383F3118816F034
:1025F00027F914F0EDFEA56A14F00AFF16F038F979
:102600002368A34207D0A2699B6892689A4202D2CB
:10261000564814F025FD002383F311880BF0A0FC2D
:102620000F28E1D8DFE810F05A0051001B0010001D
:10263000C20248023002270210000D020602B20157
:10264000AF008F005E00110207F072F9444B459A0B
:102650001B689A4240D147B0BDE8F08F0127802225
:1026600024A9089812F094FE414BD3F85422126822
:102670001278042AB8D1DFF808A198460DF18C0928
:102680002BAB59F8042F0D9351464046FFF768FFD6
:10269000D9F8202051464046FFF762FFD9F8402084
:1026A00034494046FFF75CFF33494046FFF758FF87
:1026B0000D9B4B45E5D130492D48FFF751FF05F102
:1026C0006401284615F0F4FC8EE705F0E1F8244B90
:1026D000459A1B689A42BED000F07AFD2CF0C8FBE8
:1026E000B4E701270C9B002B00F0EA84002B3FF499
:1026F0007BAFDFF87C800A98502210A912F048FEC8
:10270000D8F854321B681B78042B7FF46DAF1798F0
:10271000FEF712FE814619988A46FEF70DFECDE9B6
:1027200002011898FEF708FE4A46CDE9000153461B
:1027300040461249FFF714FF05F16401284615F0E1
:10274000B7FC51E7012709F033FC322015F038FCC3
:102750004AE700BF08FD002080680308D06803082E
:10276000000B00206C1B0020DC6803089068030845
:1027700078D30020EC680308708F0308586A0308B8
:10278000E46803080127002E00F0B183002E3FF417
:102790002BAF05F13201284615F08AFCBBF1010F81
:1027A00000F07484C0F04284BBF1020F17D1002204
:1027B000114610460A230AF013FF002211460A238D
:1027C00030460AF00DFF002211460A2358460AF04F
:1027D00007FF002211460A2303200AF001FF079B8E
:1027E0000133DBB2142B07930BD10BF1010203234E
:1027F00092FBF3F303EB4303D31A5FFA83FB00234B
:102800000793D64DD5F854321B681B78042B7FF400
:10281000EBAE24A90898802212F0BAFD502210A92C
:102820000A9812F0B5FDCE492846FFF799FEBDF98A
:1028300072E0BDF970C0BDF96E00BDF96C10BDF954
:102840006A30BDF96820CDE902CECDE90010C54956
:102850002846FFF785FEC4492846FFF781FE0BF0A6
:102860007FFBC24902462846FFF77AFEC049284648
:10287000FFF776FE0AF014FE80460AF029FE814634
:102880000AF03EFE4B4642460090BA492846FFF702
:1028900067FEB9492846FFF763FEDDE93832DDE916
:1028A0003A10CDE90232379B0193369B0093CDE974
:1028B0000410DDE93423B1492846FFF751FEB04941
:1028C0002846FFF74DFEDDE92832DDE92A10CDE983
:1028D0000232279B0193269B0093CDE90410DDE98A
:1028E0002423A6492846FFF73BFEA6492846FFF7C2
:1028F00037FE002001F064FC8046012001F060FCFE
:102900008146022001F05CFC8246032001F058FC65
:102910004B464246CDE900A09B492846FFF720FEE2
:102920009A492846FFF71CFE11F02AF88F49024603
:102930002846FFF715FE02F02BFB02F019FA02F011
:10294000CFFA90F8009090F8018091494FEA49122F
:102950004FEAE803D2B203F01C03284642EA030A16
:10296000FFF7FEFD4FEAC80202F0F802534600925C
:10297000884909F0F8022846FFF7F2FD28460CF0D6
:10298000BFFD642015F01CFB2EE6012724A9802240
:10299000089812F0FDFCDDF8D0803B98359B3A9A00
:1029A000C0EBC030C8EBC838C3EB4808C2EB4002EC
:1029B00002F24C4008F24C4800B20FFA88F80BF0D3
:1029C000DFF940460BF0C4F9BBF1010F00F01583AD
:1029D000C0F0FA82BBF1020F17D100221146104657
:1029E0000A230AF0FDFD002211460A2301200AF005
:1029F000F7FD002211460A2358460AF0F1FD002295
:102A000011460A2303200AF0EBFD079B0133DBB2DA
:102A1000642B079300F0C582099B01339BB2B3F589
:102A2000FA6F099300F0438205F10A01284615F078
:102A30003FFBD9E50BF0D4FD10F082FF0AF080FADD
:102A400004E604F045FF01E601270BF0B9FB8046E0
:102A50000BF0CEFB10EE100AFEF76EFC4246CDE9FD
:102A600000014D494D48FFF77BFD05F5FA712846F9
:102A700015F01EFBB8E539480DF082F94FF47A7075
:102A800015F09EFAFAE701274FF0FF326321444820
:102A900018F086F9322301220DF13F01414818F068
:102AA000BFF800B20028BFDD4FF0FF329DF83F10A5
:102AB0003D4818F075F9B7E7002F00F0A580AA226D
:102AC0000D2120200AF0A4FAFF220E2120200AF076
:102AD0009FFA05F11401284615F0EAFA202383F342
:102AE000118815F0ADFE14F073FCA56A14F090FC8B
:102AF00015F0BEFE2368A34205D0A1699A688B68D1
:102B00009A4200F2E581002383F311880BF028FA42
:102B10000F2800F2C98101A353F820F0DD26000838
:102B2000CB2600085D26000849260008B12B0008C6
:102B3000BF2A0008872A0008772A000849260008CB
:102B4000432A0008352A00088B2900088527000839
:102B500045270008E3260008492A000878D300200A
:102B6000446903084C690308806903088C690308F9
:102B700094690308A4690308D4690308E069030899
:102B8000046A0308106A0308F0690308206A03084E
:102B9000346A0308406A0308706A03082C0B01209A
:102BA0005C0B0120380B0120A8D30020002F4DD052
:102BB0000DF58878D9464246002120200AF0D8F940
:102BC000002840F03D819DF81031002B40F0D4806A
:102BD00005F11401284615F06BFA202383F31188C0
:102BE00015F02EFE14F0F4FBA56A14F011FC15F09C
:102BF0003FFE2368A34205D0A2699B6892689A426F
:102C0000C0F02381CB467EE796220C2120200DF5D3
:102C100088780AF0FDF942460C2120200AF0A8F934
:102C2000002800F0A2800022112120200AF0F0F9F3
:102C300042460C2120200AF09BF9002800F08E80EB
:102C40000022102120200AF0E3F942E796220C210D
:102C500020200AF0DDF90022112120200AF0D8F905
:102C60000022102120200AF0D3F905F11401284692
:102C700015F01EFA202383F3118815F0E1FD14F0FE
:102C8000A7FBA56A14F0C4FB15F0F2FD2368A3426C
:102C900004D0A2699B6892689A422BD3002383F3E5
:102CA00011880BF05DF90F2800F2FE8001A353F8A4
:102CB00020F000BFDD260008CB2600085D260008B6
:102CC00049260008B12B0008BF2A0008872A0008FF
:102CD000772A000849260008432A0008352A0008F8
:102CE0008B29000885270008512D0008E3260008DD
:102CF000492A0008DE4814F0B3F9002383F3118851
:102D00000BF02EF90F283FF6E9AE01A353F820F09F
:102D1000DD260008CB2600085D26000849260008AD
:102D2000B12B0008BF2A0008872A0008772A00086C
:102D300049260008432A0008352A00088B29000884
:102D400085270008512D0008E3260008492A0008BD
:102D500009F02EF9322015F033F9BFE69DF8102165
:102D6000C449C548FFF7FCFB6AE79DF81021C34939
:102D7000C148FFF7F5FB56E74246012120200AF043
:102D8000F7F80DF21112022120200AF0F1F89DF857
:102D900010219DF8113103EB02239BB2424603211F
:102DA00020200D930AF0E4F80DF2111204212020E6
:102DB0000AF0DEF89DF811319DF8100103EB0020B8
:102DC000FEF7A8FAA6A3D3E90023FEF711FB4246BB
:102DD00082468B46202005210AF0CAF80DF2111216
:102DE000062120200AF0C4F89DF810119DF8113139
:102DF00003EB01239BB24246092120201F460AF023
:102E0000B7F89D4BD3F854229DF810311268127810
:102E1000042A7FF4DDAE0393504659460022984BB6
:102E20000297FEF7E5FA90A3D3E90023FEF70AFC28
:102E30000D9ACDE9000193498F48FFF791FBC7E652
:102E400091498D48FFF78CFBC2E6894814F008F9D8
:102E5000002383F311880BF083F80F2800F29D8084
:102E600001A353F820F000BFDD260008CB260008A0
:102E7000932F000849260008B72B00088F2F000861
:102E8000892F0008772A000849260008432A0008ED
:102E9000352A00087D2F0008E52E0008DF2E0008E7
:102EA000D92E0008832F00080127FFF79DBB0B9840
:102EB0000E210130002290FBF1F301FB1303D8B285
:102EC00011469BB20B9301F0B3FD00230993ABE5D0
:102ED000674814F0C5F816E6CB46012702E4CB4656
:102EE000012730E4CB460127002E7FF44FAC0CF0D5
:102EF00027F932463146032001F09AFD96200AF068
:102F000027FF96200AF03CFFA02380220093F021A7
:102F1000CDE9012230201A4602F0DAF801F098FFDC
:102F2000304601F0C5FF01F0ABFE0BF0B9FB0BF032
:102F300087FC01200AF08CFB01200AF0A9FB01218B
:102F400004200AF0F5FA3346324630460A210AF0E8
:102F500047FB334632460A2101200AF041FB334643
:102F600032460A2102200AF03BFB334632460A2150
:102F700003200AF035FB0126FFF736BBCB460127BD
:102F800004E5CB46012760E5CB4601277CE5CB462F
:102F900095E5CB460127FFF762BBCB460127FFF73C
:102FA00023BB0BF10102032392FBF3F303EB430377
:102FB000D31A02205FFA83FB0AF04AFB02200AF0D0
:102FC00067FB0023079327E500231A4618460A21CA
:102FD0000AF006FB00231A460A2101200AF000FB32
:102FE00000231A460A2102200AF0FAFA00231A46A0
:102FF0000A2103200AF0F4FA07E5002319461846CF
:103000000A220AF0EDFA0023194658460A220AF06D
:10301000E7FA002319460A2202200AF0E1FA002307
:1030200019460A2203200AF0DBFAEEE400231A46CE
:1030300018460A210AF0D4FA00231A4630460A211B
:103040000AF0CEFA00231A460A2102200AF0C8FA32
:1030500000231A460A2103200AF0C2FAFFF7BFBB79
:10306000000000E0E2361A3F00000060FB2109404A
:10307000906803082069030878D300200C690308CE
:1030800000806640F8680308F068030800231946CA
:1030900018460A220AF0A4FA0023194658460A22C2
:1030A0000AF09EFA002319460A2202200AF098FA32
:1030B000002319460A2203200AF092FAFFF78FBB79
:1030C0000BF0AEFC01230C93FFF78EBA000000005A
:1030D00000B5304B85B01B68039318F0B9FA13F0B4
:1030E00057FF0AF08DFB2C4A2C492D4812F078F836
:1030F000002211462B4812F0BBF90AF0F1FA002029
:103100000AF0A6FA00200AF0C3FA0CF0A1F901F0C7
:103110008FFD02F035FA0AF0ABFE0BF0C1FF0BF0A9
:1031200027F800F075FF09F0BBFD0BF029FA0AF053
:103130007FF90CF0ADF810F0DBFB1B491B481AF0CF
:103140003FFB002001F05CF80CF0CAF801F050FCE5
:1031500013F036FE164A1349164812F089F915483D
:103160002BF066FE14490F480CF0BAFE2BF030FE2F
:1031700012482BF095FD002300931148114B40227B
:1031800040F6781114F004FE4FF47A7014F018FF32
:10319000FAE700BF000B0020040B00200C0B0020FE
:1031A0006C1B0020781B0020200B00202C0B012022
:1031B000C0680308541B002000000E080410002003
:1031C000901B0020A1250008000000000000000066
:1031D00000B5084B83B01A680192019A1B689A42A5
:1031E00005D1054803B05DF804EB13F039BFFFF7D4
:1031F000EFFF00BF000B0020A068030800000000E4
:1032000030B54368174D1A68296883B004460191A8
:1032100012B304220270DA681B68520811469847FC
:103220002378042B18D0202383F3118815F038FB62
:1032300014F00EF904F10800002115F0C9F814F09B
:1032400027F915F045FB002383F31188019A2B68B9
:103250009A4204D103B030BD02232370E3E7FFF7A5
:10326000B7FF00BF000B00200000000000000000BE
:1032700070B5194D82B02B68019311F00C0F0C46FC
:10328000064622D114F0200109D0019A2B689A42F7
:103290001FD1304602B0BDE87040FFF7B1BFE30672
:1032A0000DD57268136853B1019C2868844210D10F
:1032B000D2683046520802B0BDE870401847019A03
:1032C0002B689A4205D102B070BD044813F0C8FEC5
:1032D000D8E7FFF77DFF00BF000B0020B06A0308AE
:1032E00070B5194D82B02B68019311F00C0F0C468C
:1032F000064622D114F0200109D0019A2B689A4287
:103300001FD1304602B0BDE87040FFF779BFE30639
:103310000DD57268136853B1019C2868844210D19E
:10332000D2683046520802B0BDE870401847019A92
:103330002B689A4205D102B070BD044813F090FE8C
:10334000D8E7FFF745FF00BF000B0020B06A030875
:1033500030B50F4D0F4C2A680F4B83B020460192B9
:103360004FF6FF721A8000F07BFC0C4B01992A6823
:103370000B480C4D2562636203F1240591420A4B10
:103380002363C4E90A5001D103B030BDFFF720FF29
:10339000000B0020202500200825002098C00308ED
:1033A0001E010100003C004046000100000000003A
:1033B00070B52C4D03782A6882B0012B0446019227
:1033C00024D06368E26A5989236B22F4F04223F423
:1033D000F043090544BF42F4205243F42053C4E9AA
:1033E0000B23236A00221A606268236A52891A60DA
:1033F000236A03225A60226A136843F04003136071
:10340000019A2B689A422BD102B070BD164EB04281
:103410000AD0D4E9083212680C339360A26A236A96
:1034200012680C339360CCE70346104A406A0A21C5
:103430001BF056FE80B9B06A0B4B0D4A0A211BF0F7
:103440004FFE28B90B4A136C43F400431364E0E7C2
:10345000094813F005FEF5E7074813F001FEEAE717
:10346000FFF7B6FE000B002020250020E132000807
:103470007132000800380240906A03080000000022
:1034800070B5456A174C2D68266882B00196EB60CE
:10349000436A1B685960456AC36A2D6843F48063B8
:1034A0002B60836A1B68DA60836A1B685960826AD2
:1034B000036B126843F480631360436A1A681368ED
:1034C00043F001031360836A1A68136843F0010331
:1034D0001360019A23689A4201D102B070BDFFF7D0
:1034E00077FE00BF000B002000000000000000007D
:1034F00030B5104D81682B680F4A83B001930B687B
:1035000023F001030B608168946A03E0936A1B1B3C
:10351000C72B09D8086810F00100F7D1019A2B6871
:103520009A4204D103B030BD4FF0FF30F6E7FFF709
:103530004FFE00BF000B002008FD0020000000002F
:1035400030B5184D83B02B68019311F00C0F044671
:103550000AD00378032B13D00622636822709A687E
:103560001AB100212046904763685B688BB10199CE
:103570002A68914213D1204603B0BDE83040184775
:10358000FFF7B6FF0622636822709A68002AE8D126
:10359000EBE7019A2B689A4201D103B030BDFFF7E7
:1035A00017FE00BF000B002000000000000000001C
:1035B000F0B5284D83B02B68019315F009F913F08D
:1035C00087FF254B1E69F20715D55A69234C42F037
:1035D00001025A612778BB1F012B2AD90522636893
:1035E00022701B680BB120469847042F27D0022F6A
:1035F00025D003232370B30710D5174A174C5369FE
:1036000043F0020353612378032B1DD063689B684A
:103610000622227013B101211048984713F080FF51
:10362000019A2B689A4213D103B0BDE8F04017F01D
:10363000CFBF019A2B689A420AD103B0F0BD022392
:103640002370B307EAD5D8E72046FFF751FFDDE73F
:10365000FFF7BEFD000B0020000005500C250020E8
:1036600030B50B4D0B4C2B6883B02046019300F016
:103670004FF9019A2B680848084D094921619A427F
:10368000C4E9025001D103B030BDFFF7A1FD00BF76
:10369000000B00200C250020ECC0030800000550A2
:1036A00016550202000000000000000000000000AB
:1036B0002DE9F0412F4C0578266882B0012D019646
:1036C00006D0019A23689A4252D102B0BDE8F08137
:1036D000294DA842F5D10E4690461F46274AE86874
:1036E0002B460C211BF0FCFC002839D1D5E9023215
:1036F000126828339360EB681A68042151611B68D3
:10370000C3F80C80EB681A6817611B68B6085E6026
:103710002B694FB343F480232B61E968184A096889
:103720000B60EB6819680B6843F001030B60536B87
:1037300043F0010353630B214E201BF0B1F9D5E98F
:103740000113DA6842F00102DA60DA6842F002023C
:10375000DA60CA6822F4804222F001021A60B0E7FF
:10376000084813F07DFCC1E723F480232B61D4E7E4
:10377000FFF72EFD000B00200C250020413500082E
:1037800000380240C06A030800000000000000008A
:1037900030B5184C0378226883B0022B019205D013
:1037A000019A23689A4223D103B030BD124B98424C
:1037B0000546F5D18168114A0B6823F4804323F054
:1037C00001030B608168CB6823F00F03CB60536B60
:1037D00023F0010353634E201BF08AF9019A2368FA
:1037E0009A4205D1E86803B0BDE830401BF0E0BC68
:1037F000FFF7EEFC000B00200C25002000380240F3
:1038000000B50F4B0278196883B0022A01910ED1DE
:1038100081680A6842F002020A6081680A6842F41C
:1038200080420A6081680A6842F001020A60019AD7
:103830001B689A4202D103B05DF804FBFFF7C8FC95
:10384000000B00200000000000000000000000004D
:1038500000B50F4B0278196883B0022A01910ED18E
:1038600081680A6822F002020A6081680A6842F4EC
:1038700080420A6081680A6842F001020A60019A87
:103880001B689A4202D103B05DF804FBFFF7A0FC6D
:10389000000B0020000000000000000000000000FD
:1038A00000B50C4B0278196883B0032A0191019A84
:1038B0001B6806D09A424FF0000009D103B05DF8B2
:1038C00004FB9A4204D103B05DF804EBFFF710BE8D
:1038D000FFF77EFC000B002000000000000000004D
:1038E00000B5074B83B01A680192019A1B689A428F
:1038F00004D103B05DF804EBFFF7B2BEFFF768FC3C
:10390000000B00200000000000000000000000008C
:1039100000B5084B83B01A68019201220270019A27
:103920001B6800219A42416002D103B05DF804FB9C
:10393000FFF74EFC000B002000000000000000001C
:103940002DE9F043254D83B02C680194DDF82890D3
:103950000F4616469846044618B111B1204B9A42BC
:103960002FD9204813F07CFB202383F3118814F017
:1039700067FF13F02DFD2378012B02D0194813F0B7
:103980006FFB4246314620464B466760FFF790FE8C
:103990000223237013F03CFD14F06AFF124B1A68E7
:1039A0009A4204D0996993688A689A420FD3002397
:1039B00083F31188019A2B689A420CD103B0BDE8B9
:1039C000F0839307CDD1B8F1000FCDD1C9E70748F7
:1039D00013F046FBEBE7FFF7FBFB00BF000B0020FB
:1039E000FCFF0300F06A030808FD0020E06A0308FA
:1039F00030B51C4D83B02B680193044658B3202387
:103A000083F3118814F01CFF13F0E2FC2378022BDF
:103A100002D0154813F024FB2046FFF7B9FE01231E
:103A2000237013F0F5FC14F023FF104B1A689A4230
:103A300004D0996993688A689A4208D3002383F373
:103A40001188019A2B689A4209D103B030BD084809
:103A500013F006FBF2E7044813F002FBCFE7FFF791
:103A6000B7FB00BF000B0020006B030808FD00201F
:103A7000E06A0308000000000000000000000000F1
:103A800030B51C4D83B02B680193044658B32023F6
:103A900083F3118814F0D4FE13F09AFC2378022BE0
:103AA00002D0154813F0DCFA2046FFF7A9FE0423E4
:103AB000237013F0ADFC14F0DBFE104B1A689A4231
:103AC00004D0996993688A689A4208D3002383F3E3
:103AD0001188019A2B689A4209D103B030BD084879
:103AE00013F0BEFAF2E7044813F0BAFACFE7FFF793
:103AF0006FFB00BF000B0020106B030808FD0020C7
:103B0000E06A030800000000000000000000000060
:103B100030B51C4D83B02B680193044658B3202365
:103B200083F3118814F08CFE13F052FC2378022BDF
:103B300002D0154813F094FA2046FFF789FE0323BC
:103B4000237013F065FC14F093FE104B1A689A4230
:103B500004D0996993688A689A4208D3002383F352
:103B60001188019A2B689A4209D103B030BD0848E8
:103B700013F076FAF2E7044813F072FACFE7FFF792
:103B800027FB00BF000B0020306B030808FD00205E
:103B9000E06A0308000000000000000000000000D0
:103BA00070B51F4E82B033680193044688B320235A
:103BB00083F3118814F044FE13F00AFC2378032BDE
:103BC00002D0184813F04CFA2046FFF769FE05466C
:103BD000E0B10723237013F01BFC14F049FE124BD5
:103BE0001A689A4204D0996993688A689A4209D3FC
:103BF000002383F31188019A33689A4228460CD136
:103C000002B070BD094813F02BFAF1E702232370CC
:103C1000E1E7044813F024FAC9E7FFF7D9FA00BF37
:103C2000000B0020406B030808FD0020E06A030839
:103C300000B5074B83B01A680192019A1B689A423B
:103C400004D103B05DF804EBFFF782BBFFF7C0FAC5
:103C5000000B002000000000000000000000000039
:103C600000B50A4B83B01A680192012202700199D3
:103C70001A6800239142C0E9013305D10C3003B02A
:103C80005DF804EB15F004BBFFF7A2FA000B00206F
:103C900070B51E4D82B02B6801930E46044670B37A
:103CA00069B3202383F3118814F0CAFD13F090FB4D
:103CB0002378013B012B02D9154813F0D1F9204696
:103CC0006660FFF775FB0223237013F0A1FB14F06D
:103CD000CFFD104B1A689A4204D0996993688A689C
:103CE0009A4208D3002383F31188019A2B689A42E1
:103CF00009D102B070BD084813F0B2F9F2E70448E8
:103D000013F0AEF9CDE7FFF763FA00BF000B002018
:103D1000606B030808FD0020506B030800000000E2
:103D20002DE9F041214D82B02C6801940E46904659
:103D30001F46044600B171BB1D4813F091F92023C2
:103D400083F3118814F07CFD13F042FB2378022BDF
:103D500002D0174813F084F903203B46424631460F
:103D600020702046FFF78CFB13F052FB14F080FD0F
:103D7000104B1A689A4204D0996993688A689A42EB
:103D80000ED3002383F31188019A2B689A420BD13A
:103D900002B0BDE8F081002BCED0002ACFD1CBE716
:103DA000054813F05DF9ECE7FFF712FA000B00206D
:103DB000706B030808FD0020506B03080000000032
:103DC00000B5084B83B01A680192019A1B689A42A9
:103DD00005D1054803B05DF804EB13F041B9FFF7D6
:103DE000F7F900BF000B0020906B030800000000F3
:103DF00070B5194A194C1578236882B001934FF4B5
:103E0000B47303FB00F665B1019A23689A4220D18E
:103E100013481449B1FBF6F102B0BDE8704018F048
:103E200007BA114911484D6001251570802242835F
:103E30000F4A104818F044F8019A23689A4208D1B2
:103E400007480849B1FBF6F102B0BDE8704018F030
:103E500057BAFFF7BDF900BF78250020000B0020FE
:103E6000AC0A012000BD010568250020000C0240BD
:103E7000A06B0308580701200000000000000000AC
:103E8000F0B51A4D1A4C2E78276883B00197174663
:103E900066B1019A23689A4226D116481649B1FBA9
:103EA000F7F103B0BDE8F04018F0C2B9134EDFF8E7
:103EB00054C0736002464FF0010E80200B4685F817
:103EC00000E03146ACF81A000D4817F0F9FF019AEE
:103ED00023689A4208D107480749B1FBF7F103B0BC
:103EE000BDE8F04018F00CBAFFF772F97825002011
:103EF000000B0020AC0A012000BD01056825002050
:103F000058070120000C02400000000000000000E3
:103F1000F0B5114C83B02368019305460F480E4657
:103F2000174618F025FA0E4818F05AF833462A4674
:103F30000C490B4817F08CFF019A23689A4208D16C
:103F400006480949B1FBF7F103B0BDE8F04018F0AD
:103F5000AFB9FFF73DF900BF000B0020AC0A01200C
:103F6000580701206825002000BD01050000000061
:103F700010B50C4C0C4B22680C4882B00192802288
:103F80001A8318F0F5F90A4818F02AF8019A2368FC
:103F9000084900209A42087001D102B010BDFFF715
:103FA00017F900BF000B0020000C0240AC0A0120F2
:103FB00058070120782500200000000000000000C4
:103FC00010B50C4C0C4B22680C4882B00192802238
:103FD0001A8318F0F5F90A4817F0B2FF019A23681E
:103FE000084900209A42087001D102B010BDFFF7C5
:103FF000EFF800BF000B0020000C0240AC0A0120CB
:104000005807012078250020000000000000000073
:1040100070B5154D154A164B2968164E9E6082B034
:1040200000244FF4006010800191947011461248F2
:104030005C6001221A60DC6017F0C2FE0F4B104E6C
:1040400010485C60202219469A60DC601E6018F0FF
:10405000A7F8019A2B689A4204D102B0BDE87040DB
:10406000FFF7AEBFFFF7B4F8000B00206425002077
:1040700068250020C13D0008580701205425002074
:1040800000BD0105AC0A0120000000000000000096
:1040900000B5094B83B01A6801928021074A38B9EC
:1040A0001183019A1B689A4204D103B05DF804FBA6
:1040B0005183F6E7FFF78CF8000B0020000C02405C
:1040C0002DE9F04F394A3A4B126883B0012401922E
:1040D0001C70002963D04FF00008364CC246C3461E
:1040E000C1464746C446434647F6FF7E1DE0AB4502
:1040F000A8BFAB46024432F9026CB2F90450B44294
:10410000B8BF3446B645A8BFB6464D4545DCA845C0
:10411000A8BFA846B2F90220BA420EDC0433924589
:104120009BB2A8BF924699420CD95D1C6A0030F937
:1041300015506545DBDDAC46DCE704339BB29942A4
:104140001746F2D8A4EB0E04ACEB0B0CA7EB0A0756
:10415000A9EB0808A4B21FFA8CFCBFB21FFA88F8BA
:10416000154A12491480019C0968144BA2F802C038
:104170009780B0F8F8C4B0F8FA64A2F80680B0F8F6
:10418000FC54B0F8FE24A3F800C08C425E809D80F1
:10419000DA8008D103B0BDE8F08FA946BAE78846B7
:1041A0000F468C46DCE7FFF713F800BF000B00203A
:1041B000792500200080FFFF842500207C25002039
:1041C00000B50A4B83B01A68019203289CBF084AC5
:1041D00032F81000019A1B6888BF00209A4202D171
:1041E00003B05DF804FBFEF7F3FF00BF000B0020F7
:1041F00084250020000000000000000000000000F6
:1042000070B53F4B3F4C1A78236882B0012A019366
:1042100005D0019A23689A4270D102B070BD3A4924
:104220003A4B4D6C45F480354D644E6A002546F49A
:1042300080364E624D621D61DD60196A21F0010118
:104240001962996921F003019961996941F00101AD
:104250009961996921F0F0019961196A21F00A01C7
:104260001962996921F00C019961996821F0700136
:104270009960996841F050019960996821F4803102
:1042800021F007019960996841F007019960196868
:1042900021F440711960DA629D625A61196A21F055
:1042A00010011962996921F440719961996921F0AD
:1042B000807121F4E0419961996941F4C0419961AB
:1042C000196A21F0A00119629A639A6942F40062A6
:1042D0009A611A6A22F480621A621A6A42F0110222
:1042E0001A621A6842F001021A6020B10090684612
:1042F00000F0D6F98DE7064B0093F8E7FEF768FF6C
:10430000440A0120000B0020003802400040014018
:10431000C140000800000000000000000000000094
:1043200000B5074B83B01A680192019A1B689A4244
:1043300004D103B05DF804EB00F072BAFEF748FF59
:10434000000B002000000000000000000000000042
:1043500000B5074B07491A68087883B00192019AA3
:104360001B689A4202D103B05DF804FBFEF730FFF0
:10437000000B002079250020000000000000000054
:1043800000B5084B08491A6883B000200192019AD1
:104390001B6808709A4202D103B05DF804FBFEF777
:1043A00017FF00BF000B002079250020000000004F
:1043B00000B5074B83B01A680192019A1B689A42B4
:1043C00004D14FF4A06003B05DF804FBFEF700FFDA
:1043D000000B0020000000000000000000000000B2
:1043E00070B5114C82B0236801930E461546202308
:1043F00083F3118814F054FA13F02AF80B4B0C488D
:10440000C3E9006514F04CFE13F042F814F060FAB2
:10441000002383F31188019A23689A4201D102B0E4
:1044200070BDFEF7D5FE00BF000B0020A03A0020B3
:104430008C250020000000000000000000000000AB
:1044400070B5114C82B0236801930E4615462023A7
:1044500083F3118814F024FA12F0FAFF0B4B0C4886
:10446000C3E9006514F01CFE13F012F814F030FAE2
:10447000002383F31188019A23689A4201D102B084
:1044800070BDFEF7A5FE00BF000B002084380020A1
:104490008C2500200000000000000000000000004B
:1044A0002DE9F04F624B63499A69634B916185B086
:1044B0001B6803935E4B9B6993F821305B0700F107
:1044C000AD805E4814F0DCFC5C4814F0D9FC584B1D
:1044D0009B6993F8212012F0040240F09F80584D10
:1044E00058482B6801680446406805EB830304EBD9
:1044F000810103F50279430001F10808019343D0DB
:10450000DFF850B1504BDFF85CA1012018F81250D1
:1045100018F8006019F8121019F8004005F0550C51
:10452000770806F0550613F80CC09E5D01F0550E95
:104530004CEA061649084FEA540C01F0550104F004
:1045400055040CF0550C6D0813F80EE0595C1C5D19
:1045500013F80CC00BF8126005F0550507F055076D
:1045600041EA0C114EEA041E0AF812E05D5D0AF8F9
:104570000010DF5D0199013245EA071591420BF801
:10458000005000F10200C1D1304B31493148324D69
:104590000422FBF76DFF314B314932480422FBF70F
:1045A00067FF314B314932480422FBF761FF314B41
:1045B000314932480422FBF75BFFDFF8D4C028689A
:1045C0009CF80070224A264900EBC71302F140060E
:1045D00014881C8054885C804C889C80043231F89C
:1045E000044BDC80964203F10803F1D1092F11D16D
:1045F000234B00221B688CF800204FF42071984751
:104600002B68204A204993420B6006BF1F4B2B604A
:104610002A604FE701378CF800704BE7064B039A8E
:104620001B689A4202D105B0BDE8F08FFEF7D0FDBD
:1046300008FD0020706E0308000B00208C25002070
:10464000A03A0020843800202C0B00205C3600208B
:10465000182B0020582B0020AC0B0020C436002063
:104660002C3700206C370020903600201A2B0020B9
:10467000592B0020F83600202E3700206D370020FF
:104680006C380020582C0020B00B0020583100203E
:10469000583600200000000000000000000000006C
:1046A0002DE9F04F494A0168494B116085B000215E
:1046B0000E461B684748039314F00AFB4FF4AF61A2
:1046C000454B009641224548454DDFF84891454C01
:1046D000DFF844A1444F13F05BFB444B444A18609D
:1046E000136BC5F804A043F480534FF002184FF445
:1046F0007A5B13632846C5E90298A5F800B0FBF77A
:10470000FFFD2046C4E901A9C4F80C80A4F800B05C
:10471000FBF7F6FD05F13400C5E90EA9C5F84080A8
:10472000A5F834B0FBF7ECFD324DC4F8408004F13D
:104730003400C4E90EA9A4F834B0FBF7E1FD31461A
:1047400040F20C4238462BF053FCDFF8D0902A4A56
:104750006E604FF400634FF080082E812A606B81F9
:10476000264CC5F80C80C7F80894FFF761FA294673
:104770002348244DFFF78CFA07F5027307F108026E
:104780004FF480711E48FFF7CBFA314620464FF4B4
:1047900003722BF02DFC1C4B1C4AC4F80892083401
:1047A0001A611946C3E900641948C3E9028517F084
:1047B000F7FF074B039A1B689A4205D1144805B0CE
:1047C000BDE8F04F18F034B8FEF702FD6C38002059
:1047D000000B00208C250020A1440008A02500200B
:1047E0005C360020C4360020A03A00209825002026
:1047F00000380240903A0020E1430008843800204D
:104800002025002041440008703800202C030800B7
:10481000440A0120000020410000FA45EFBEADDE51
:1048200000B5074B07491A68086883B00192019ADE
:104830001B689A4202D103B05DF804FBFEF7C8FC86
:10484000000B0020B00B0020000000000000000062
:1048500010B50B4C0B48236882B0019314F000FE96
:10486000094815F0C5F8019A23689A4205D1054810
:1048700002B0BDE8104014F02BBEFEF7A9FC00BF4B
:10488000000B0020C00B0020B80B0020000000002F
:1048900030B50F4C83B0236801930D4608B1FFF784
:1048A000A7FA4FF47A700B4900FB05F000F2E730ED
:1048B000A1FB0030800913F083FB019A23689A4220
:1048C00004D103B0BDE83040FFF77ABBFEF780FCAF
:1048D000000B0020D34D621000000000000000001B
:1048E0002DE9F0432DED028BDFF8FC80344BD8F836
:1048F000182034491B68344DDFED348A9FED348A2B
:10490000344E354F916183B00193202383F3118896
:1049100013F096FF12F05CFD304813F001FD2860A3
:1049200012F076FD13F0A4FFD8F80030434508D00C
:10493000D8F818209B6892689A4202D2284812F050
:104940008FFB4FF0000989F311882B681A8972BB1D
:1049500030E0D3E9001202EB890393ED007A31F8DD
:104960001900C8EE877A09F10109FCEEE77A17EE23
:10497000903A9CB22146FFF78BFF07EE904AF8EE83
:10498000E77A4FF47A7367EE887AFCEEE77A17EEEF
:10499000902A90B203FB00F000F2E730A7FB003052
:1049A000800913F00DFB2B681A894A4502DD327825
:1049B000002ACED100230B48337014F099FFA4E7EE
:1049C000000B0020806E0308B03E002000007A44F7
:1049D0006666A63FB40B0020D34D6210AC3E0020AB
:1049E000906E0308B80B002008FD002000000000B6
:1049F00010B50A4C0A4B22680A4884B04FF4FC7187
:104A0000039200220092402213F0C2F9039A236815
:104A10009A4201D104B010BDFEF7DAFB000B002072
:104A2000E1480008B83E002000000000000000003F
:104A300070B5214E82B0336801930F280D4619D00E
:104A40000E281AD81D4C00EB400004EB800412F035
:104A50000FFA12F025FAB5B9194803686BB1019A3B
:104A60003368184901259A420D7008BF21461AD0B3
:104A7000FEF7AEFB1446002AE9D1019A33689A4248
:104A8000F6D102B070BD022D0E4D04BF00232B7075
:104A90000B4B1B6863B1019A336801219A4229705C
:104AA000E6D10748214602B0BDE8704013F0F0BCE3
:104AB000FFF7CEFEEFE700BF000B0020A073030856
:104AC000AC3E0020B40B00200000000000000000FD
:104AD00000B5084B08491A6883B000200192019A7A
:104AE0001B6808709A4202D103B05DF804FBFEF720
:104AF0006FFB00BF000B0020B40B00200000000083
:104B000000B50C4A0C4B1268196883B0019132B1A0
:104B1000019A1B689A420BD103B05DF804FB019A1D
:104B20001B689A4204D103B05DF804EBFFF790BE16
:104B3000FEF74EFBAC3E0020000B00200000000002
:104B400000B5074B07491A68087883B00192019AAB
:104B50001B689A4202D103B05DF804FBFEF738FBF4
:104B6000000B0020B040002000000000000000000A
:104B700000B5074B07491A68087083B00192019A83
:104B80001B689A4202D103B05DF804FBFEF720FBDC
:104B9000000B0020B04000200000000000000000DA
:104BA00000B5064B83B01A680192019A1B689A42BD
:104BB00002D103B05DF804FBFEF70AFB000B0020F6
:104BC00000B5064B83B01A680192019A1B689A429D
:104BD00002D103B05DF804FBFEF7FAFA000B0020E7
:104BE00010B5104C104B226882B0019201221A704D
:104BF000202383F3118813F053FE12F029FC0B4895
:104C000014F04EFE12F044FC13F062FE002383F316
:104C10001188019A23689A4201D102B010BDFEF7B3
:104C2000D7FA00BF000B0020BC400020D40B0020AE
:104C300030B50E4D0E4C2B6883B00193FEF750FE3D
:104C4000206808B12AF0D4FE4FF496402AF0C8FE3E
:104C500001992A682060B0FA80F35B099142C3F1A0
:104C6000000001D103B030BDFEF7B2FA000B002006
:104C7000B440002000000000000000000000000020
:104C800030B5174D174C2B78226885B0012B039255
:104C900020D000F0E5FD144B1B78ABB9B0F5964F72
:104CA00015D8124A124B12681B681249009202462C
:104CB0001148FEF745FE01232B700020039A23685C
:104CC0009A420BD105B030BDB0F5165FE9D94FF06F
:104CD000FF30F3E70848FEF78BFEDAE7FEF778FAD5
:104CE000B2400020000B0020B3400020B84000205C
:104CF000B4400020E08003080C25002000000000E4
:104D000030B50B4C0B4D23782A6883B0012B0192F0
:104D100007D0019A2B6800219A42217005D103B077
:104D200030BD0548FEF764FEF3E7FEF751FA00BF19
:104D3000B2400020000B00200C25002000000000E5
:104D400000B5074B07491A68087883B00192019AA9
:104D50001B689A4202D103B05DF804FBFEF738FAF3
:104D6000000B0020BC4000200000000000000000FC
:104D700010B50B4C0B48236882B0019314F070FB04
:104D8000094814F035FE019A23689A4205D1054876
:104D900002B0BDE8104014F09BBBFEF719FA00BF4B
:104DA000000B0020DC0B0020D40B002000000000D2
:104DB00000B5074B07491A68087883B00192019A39
:104DC0001B689A4202D103B05DF804FBFEF700FABB
:104DD000000B0020B3400020000000000000000095
:104DE00030B5154D154C164B2268286883B00192DA
:104DF00001221A7008B12AF0FBFD4FF416502AF078
:104E0000EFFD286098B10F4D286808B12AF0F0FD39
:104E10004FF416502AF0E4FDB0FA80F35B092860E5
:104E20005842019A23689A4204D103B030BD4FF032
:104E3000FF30F6E7FEF7CCF9B4400020000B00206D
:104E4000B3400020B8400020000000000000000037
:104E500070B5124C124D134B20682A6882B00026A0
:104E600001921E7010B12AF0C3FD26600E4C20681E
:104E700008B12AF0BDFD4FF496402AF0B1FD01992A
:104E80002A682060B0FA80F35B099142C3F1000008
:104E900001D102B070BDFEF79BF900BFB840002001
:104EA000000B0020B3400020B440002000000000B0
:104EB00000B5074B07491A68087083B00192019A40
:104EC0001B689A4202D103B05DF804FBFEF780F93B
:104ED000000B0020B1400020000000000000000096
:104EE00000B50D4A0D4B1278196883B0019142B19B
:104EF0000B4AD26812681268120302D4094A106879
:104F000001E0094A1068019A1B689A4202D103B075
:104F10005DF804FBFEF75CF9B3400020000B0020B5
:104F20000C250020B8400020B44000200000000004
:104F300000B5074B07491A68086883B00192019AC7
:104F40001B689A4202D103B05DF804FBFEF740F9FA
:104F5000000B0020B4400020000000000000000012
:104F600000B5074B07491A68086883B00192019A97
:104F70001B689A4202D103B05DF804FBFEF728F9E2
:104F8000000B0020B84000200000000000000000DE
:104F900000B50E4A0E4B1278196883B001914AB1E0
:104FA000019A1B689A420FD10A4803B05DF804EBDE
:104FB000FEF7AEBD019A1B689A4205D1054803B0C1
:104FC0005DF804EBFEF75CBDFEF702F9B14000208E
:104FD000000B00200C250020000000000000000055
:104FE00000B50C4A0C4B10781A6883B00192019AF4
:104FF0001B6820B99A420AD103B05DF804FB9A42BB
:1050000005D1064803B05DF804EBFEF7C9BDFEF715
:10501000DFF800BFB1400020000B00200C2500206D
:1050200070B5274D82B02B680193064601220321FB
:105030006E2007F0EDFF044630B1019A2B689A42CA
:1050400020463AD102B070BD32464E216E2007F0A4
:10505000DFFF04460028F0D1442E07D00246B721D6
:105060006E2007F0D5FFB8B10446E6E70122B7216C
:105070006E2007F0CDFF0028F6D1224603216E20D6
:1050800007F0C6FF0028EFD1032211216E2007F0A0
:10509000BFFF78B10446D0E7224603216E2007F017
:1050A000B7FF0028E0D10A2211216E2007F0B0FFDF
:1050B0000028D9D1034B1E71BFE7FEF789F800BF66
:1050C000000B0020C0400020000000000000000095
:1050D0002DE9F04F8FB0DFF80084DDF860C0D8F81C
:1050E00000400D940CF1FF355C1EB3F5207F9DF858
:1050F00064909DF868B00C44154400F21282BCF52F
:10510000F07F00F20E82B1F5207F0E4600F212828F
:10511000B2F5F07F174600F21082A14280F00482BF
:10512000B4F5207F00F20082AA4280F00082B5F53B
:10513000F07F00F2FC81B9F1400F824600F0B081AF
:10514000B9F1800F23D0B9F1200F00F09C8100232A
:10515000CDE90033BBF1400F2FD0BBF1800F00F041
:10516000CB81BBF1200F00F0B9810023CDE90233E0
:10517000002203216E2007F04BFFA0B30D9AD8F850
:1051800000309A4240F0E2810FB0BDE8F08F9A07FC
:1051900040F0D681CC4A8C085900661CA2FB010164
:1051A000A2FB030204EB930406EBD2030093BBF1D2
:1051B000400F06EBD1030193CFD11CF0010F40F05B
:1051C000C281C14B7D084FEA4C026F1CA3FB021247
:1051D000A3FB0C1307EB9303029307EB920305EB7E
:1051E0005C050393C4E702465B216E2007F010FFC5
:1051F0000028C3D15046FFF713FF0028BED1024656
:1052000003216E2007F004FF0028B7D1C6F307235F
:105210001A4608216E20049307F0FAFE0028ADD14B
:10522000F3B21A4609216E20059307F0F1FE00281B
:10523000A4D1C7F307231A460A216E20069307F06C
:10524000E7FE00289AD1FBB21A460B216E20079385
:1052500007F0DEFE002891D1C4F307231A460C2183
:105260006E20089307F0D4FE002887D1E3B21A46D7
:105270000D216E20099307F0CBFE00287FF47EAF4E
:10528000C5F307231A460E216E200A9307F0C0FECD
:1052900000287FF473AFEBB21A460F216E200B93F8
:1052A00007F0B6FE00287FF469AF049A35216E201E
:1052B00007F0AEFE00287FF461AF059A36216E201C
:1052C00007F0A6FE00287FF459AF089A37216E2018
:1052D00007F09EFE00287FF451AF099A38216E2016
:1052E00007F096FE00287FF449AF069A39216E2018
:1052F00007F08EFE00287FF441AF079A3A216E2016
:1053000007F086FE00287FF439AF0A9A3B216E2011
:1053100007F07EFE00287FF431AF0B9A3C216E200F
:1053200007F076FE00287FF429AF009B3D21C3F3F0
:1053300007226E2007F06CFE00287FF41FAF9DF857
:1053400000203E216E2007F063FE00287FF416AF98
:10535000019B3F21C3F307226E2007F059FE00286E
:105360007FF40CAF9DF8042040216E2007F050FE22
:1053700000287FF403AF029B4121C3F307226E2074
:1053800007F046FE00287FF4F9AE9DF80820422180
:105390006E2007F03DFE00287FF4F0AE039B432112
:1053A000C3F307226E2007F033FE00287FF4E6AE39
:1053B0009DF80C2044216E2007F02AFE00287FF47F
:1053C000DDAE012203216E2007F022FE00287FF4CB
:1053D000D5AE4A4693216E2007F01AFE00287FF4CE
:1053E000CDAE5A4694216E2007F012FE00287FF4BD
:1053F000C5AE012203216E2007F00AFE00287FF4CB
:10540000BDAE0134A31B07EE103ADFED307AB8EEE3
:10541000477ABAF1440F77EEC77A00F09980B0EE80
:10542000006AF2EE006AE7EE066A77EEA77AB0EE5F
:10543000667A67EE877ADFED266A87EEA67AFCEE5B
:10544000C77ACDED007A009B9521C3F307226E2029
:1054500007F0DEFD00287FF491AE9DF80020962134
:105460006E2007F0D5FD00287FF488AE194B01357A
:10547000EF1BA41B5F801C8083F804A083F80590B9
:1054800083F806B07AE610495A00A1FB030306EB45
:105490005303A1FB0212009306EB5203019359E65A
:1054A000D9074DD4084A74085900661CA2FB0101B3
:1054B000A2FB030204EB530406EB9203009306EBFA
:1054C0009103019346E600BFABAAAAAA00002244BA
:1054D0000000A344C0400020000B0020244A4FEAF3
:1054E0004C03A2FB0C1CA2FB032307EB530307EBAB
:1054F0005C02029203933BE61CF0030F23D11C4B8A
:10550000BD084FEA4C026F1CA3FB0212A3FB0C1355
:1055100007EBD303029307EBD20305EB9C05039340
:1055200026E66FF0070029E66FF0030026E66FF02D
:10553000040023E66FF0010020E66FF002001DE694
:105540006FF005001AE66FF0060017E6FDF740FE63
:10555000F2EE006A37EE267ADFED066A67EE277A0A
:1055600087EEA67AFCEEC77ACDED007A6BE700BF36
:10557000ABAAAAAA0000244400000000000000001A
:1055800010B5114C86B02368059307F0B9FC0F499C
:105590000F4817F0C5F9012200210D4817F058FAFD
:1055A00020237822CDE901330092A023B422F021F8
:1055B0000220FFF78DFD059A23689A4201D106B0BB
:1055C00010BDFDF705FE00BF000B0020F0800308B2
:1055D000100B01200000000000000000000000008F
:1055E00030B50E4C83B02368019301220546032198
:1055F0006E2007F00DFD019A236818B19A420BD175
:1056000003B030BD9A4207D12A469E216E2003B0D6
:10561000BDE8304007F0FCBCFDF7DAFD000B0020D0
:1056200030B50E4C83B02368019301220546032157
:105630006E2007F0EDFC019A236818B19A420BD155
:1056400003B030BD9A4207D12A469D216E2003B097
:10565000BDE8304007F0DCBCFDF7BAFD000B0020D0
:1056600070B5134C82B006460D46236801930022A4
:1056700003216E2007F0CCFC90B9012E019923681C
:105680000CBF80220022012D08BF42F04002994247
:105690000CD16C216E2002B0BDE8704007F0B8BCA0
:1056A000019A23689A4201D102B070BDFDF790FDC6
:1056B000000B0020000000000000000000000000BF
:1056C00030B5164C83B023680193054600230222AF
:1056D00003216E208DF8033007F09AFC28B1019A5F
:1056E00023689A4218D103B030BD0DF103020421A2
:1056F0006E2007F03DFC0028F1D19DF80320012D1C
:105700000CBF02F0FB0242F0040204216E208DF86F
:10571000032007F07DFCE2E7FDF75AFD000B0020B7
:10572000F0B51A4C83B005462368019300200E465D
:105730001746FFF7C5FF28B1019A23689A4222D184
:1057400003B0F0BD024603216E2007F061FC002883
:10575000F2D12A4623216E2007F05AFC0028EBD113
:10576000324624216E2007F053FC0028E4D1019A30
:1057700023689A4207D13A4625216E2003B0BDE83E
:10578000F04007F045BCFDF723FD00BF000B0020F3
:1057900030B5164C83B023680193054600230222DE
:1057A00003216E208DF8033007F032FC28B1019AF6
:1057B00023689A4218D103B030BD0DF103020421D1
:1057C0006E2007F0D5FB0028F1D19DF80320012DB4
:1057D0000CBF02F0FC0242F0030204216E208DF89F
:1057E000032007F015FCE2E7FDF7F2FC000B0020B8
:1057F00070B5194C82B005462368019300200E460F
:10580000FFF7C6FF28B1019A23689A4222D102B05D
:1058100070BD024603216E2007F0FAFB0028F2D18A
:105820002A0A17216E2007F0F3FB0028EBD1EAB219
:1058300018216E2007F0ECFB0028E4D1019A2368C0
:105840009A4207D1324619216E2002B0BDE870405D
:1058500007F0DEBBFDF7BCFC000B002000000000E1
:1058600010B50A4B0A4A1988146858881B7982B007
:10587000442B019400FB01F00199136818BF40000C
:10588000994201D102B010BDFDF7A2FCC04000203A
:10589000000B0020000000000000000000000000DD
:1058A0000EB410B583B005AA094C52F8041B236846
:1058B0000092019324F0E4F9019A23689A4204D1FA
:1058C00003B0BDE8104003B07047FDF781FC00BF96
:1058D000000B00200000000000000000000000009D
:1058E00030B50F4C83B023680193054610F0E8FFF4
:1058F000019A236840B19A420FD10A49284603B061
:10590000BDE83040FFF7CCBF9A4206D10649284691
:1059100003B0BDE83040FFF7C3BFFDF759FC00BF3F
:10592000000B0020248F0308F08E03080000000005
:1059300030B50A4B0A4C0B490B4A256885B0CDE9B6
:1059400000211A4609490395FFF7AAFF039A236825
:105950009A4201D105B030BDFDF73AFC007A030A46
:10596000000B002000BD010580DE8002408F03088F
:1059700030B50C4C83B023680193054610F0C8FF86
:10598000019A236818B19A420AD103B030BD9A42F5
:1059900006D10549284603B0BDE83040FFF780BF77
:1059A000FDF716FC000B0020009503080000000026
:1059B00070B51D4E84B0054633681C48039302AA97
:1059C00001A926F0D5FB40BB11F06AF8019A1849ED
:1059D000044603462846FFF763FF019A1549520221
:1059E00004FB02F22846FFF75BFF019A12495202BC
:1059F00004FB02F2920A2846FFF752FF019A0F4970
:105A0000520204FB02F22846120DFFF749FF039AE7
:105A100033689A4206D104B070BD28460849FFF7A2
:105A20003FFFF4E7FDF7D4FB000B0020608A03087A
:105A3000808A0308B88A0308C88A0308D88A03083A
:105A4000648A03080000000000000000000000005D
:105A500030B50C4C83B0236801934FF48072054637
:105A6000002109482AF0C4FA019A23689A4206D113
:105A70000549284603B0BDE8304010F089BFFDF766
:105A8000A7FB00BF000B0020D88000200000000012
:105A900070B51D4CADF50C7D23688B930029054630
:105AA0000DDD1A49FFF7FCFE28461949FFF7F8FEFD
:105AB0008B9A23689A4225D10DF50C7D70BD01A803
:105AC0000B22144925F044FF064640B112492846EE
:105AD000FFF7E6FE3146284610F0FAFFE8E70F49E7
